{
  "_format": "hh-sol-artifact-1",
  "contractName": "RandomNumReceiver",
  "sourceName": "contracts/RandomNumReceiver.sol",
  "abi": [
    {
      "inputs": [
        {
          "internalType": "address payable",
          "name": "_tellorAddress",
          "type": "address"
        },
        {
          "internalType": "address",
          "name": "_generatorAddress",
          "type": "address"
        }
      ],
      "stateMutability": "nonpayable",
      "type": "constructor"
    },
    {
      "anonymous": false,
      "inputs": [
        {
          "indexed": false,
          "internalType": "uint256",
          "name": "_queuePosition",
          "type": "uint256"
        },
        {
          "indexed": true,
          "internalType": "address",
          "name": "_caller",
          "type": "address"
        }
      ],
      "name": "InQueueForRandomNumber",
      "type": "event"
    },
    {
      "anonymous": false,
      "inputs": [
        {
          "indexed": false,
          "internalType": "uint256",
          "name": "_randomNumber",
          "type": "uint256"
        },
        {
          "indexed": true,
          "internalType": "address",
          "name": "_caller",
          "type": "address"
        }
      ],
      "name": "RandomNumberReceived",
      "type": "event"
    },
    {
      "inputs": [
        {
          "internalType": "uint256",
          "name": "_requestId",
          "type": "uint256"
        }
      ],
      "name": "getCurrentValue",
      "outputs": [
        {
          "internalType": "bool",
          "name": "ifRetrieve",
          "type": "bool"
        },
        {
          "internalType": "uint256",
          "name": "value",
          "type": "uint256"
        },
        {
          "internalType": "uint256",
          "name": "_timestampRetrieved",
          "type": "uint256"
        }
      ],
      "stateMutability": "view",
      "type": "function"
    },
    {
      "inputs": [
        {
          "internalType": "uint256",
          "name": "_requestId",
          "type": "uint256"
        },
        {
          "internalType": "uint256",
          "name": "_timestamp",
          "type": "uint256"
        }
      ],
      "name": "getDataBefore",
      "outputs": [
        {
          "internalType": "bool",
          "name": "_ifRetrieve",
          "type": "bool"
        },
        {
          "internalType": "uint256",
          "name": "_value",
          "type": "uint256"
        },
        {
          "internalType": "uint256",
          "name": "_timestampRetrieved",
          "type": "uint256"
        }
      ],
      "stateMutability": "view",
      "type": "function"
    },
    {
      "inputs": [
        {
          "internalType": "uint256",
          "name": "_requestId",
          "type": "uint256"
        },
        {
          "internalType": "uint256",
          "name": "_timestamp",
          "type": "uint256"
        }
      ],
      "name": "getIndexForDataBefore",
      "outputs": [
        {
          "internalType": "bool",
          "name": "found",
          "type": "bool"
        },
        {
          "internalType": "uint256",
          "name": "index",
          "type": "uint256"
        }
      ],
      "stateMutability": "view",
      "type": "function"
    },
    {
      "inputs": [
        {
          "internalType": "uint256",
          "name": "_requestId",
          "type": "uint256"
        }
      ],
      "name": "getNewValueCountbyRequestId",
      "outputs": [
        {
          "internalType": "uint256",
          "name": "",
          "type": "uint256"
        }
      ],
      "stateMutability": "view",
      "type": "function"
    },
    {
      "inputs": [
        {
          "internalType": "uint256",
          "name": "_requestId",
          "type": "uint256"
        },
        {
          "internalType": "uint256",
          "name": "_index",
          "type": "uint256"
        }
      ],
      "name": "getTimestampbyRequestIDandIndex",
      "outputs": [
        {
          "internalType": "uint256",
          "name": "",
          "type": "uint256"
        }
      ],
      "stateMutability": "view",
      "type": "function"
    },
    {
      "inputs": [
        {
          "internalType": "uint256",
          "name": "_requestId",
          "type": "uint256"
        },
        {
          "internalType": "uint256",
          "name": "_timestamp",
          "type": "uint256"
        }
      ],
      "name": "isInDispute",
      "outputs": [
        {
          "internalType": "bool",
          "name": "",
          "type": "bool"
        }
      ],
      "stateMutability": "view",
      "type": "function"
    },
    {
      "inputs": [
        {
          "internalType": "uint256",
          "name": "_randomNumber",
          "type": "uint256"
        },
        {
          "internalType": "uint256",
          "name": "_queuePosition",
          "type": "uint256"
        }
      ],
      "name": "receiveRandomNumber",
      "outputs": [],
      "stateMutability": "nonpayable",
      "type": "function"
    },
    {
      "inputs": [
        {
          "internalType": "uint256",
          "name": "_range",
          "type": "uint256"
        }
      ],
      "name": "requestRandomNumber",
      "outputs": [],
      "stateMutability": "nonpayable",
      "type": "function"
    },
    {
      "inputs": [
        {
          "internalType": "uint256",
          "name": "_requestId",
          "type": "uint256"
        },
        {
          "internalType": "uint256",
          "name": "_timestamp",
          "type": "uint256"
        }
      ],
      "name": "retrieveData",
      "outputs": [
        {
          "internalType": "uint256",
          "name": "",
          "type": "uint256"
        }
      ],
      "stateMutability": "view",
      "type": "function"
    },
    {
      "inputs": [],
      "name": "rng",
      "outputs": [
        {
          "internalType": "contract IRandomNumGenerator",
          "name": "",
          "type": "address"
        }
      ],
      "stateMutability": "view",
      "type": "function"
    }
  ],
  "bytecode": "0x60806040523480156200001157600080fd5b50604051620015b8380380620015b88339818101604052810190620000379190620000f0565b81806000806101000a81548173ffffffffffffffffffffffffffffffffffffffff021916908373ffffffffffffffffffffffffffffffffffffffff1602179055505080600160006101000a81548173ffffffffffffffffffffffffffffffffffffffff021916908373ffffffffffffffffffffffffffffffffffffffff1602179055505050620001ad565b600081519050620000d38162000179565b92915050565b600081519050620000ea8162000193565b92915050565b600080604083850312156200010457600080fd5b60006200011485828601620000d9565b92505060206200012785828601620000c2565b9150509250929050565b60006200013e8262000159565b9050919050565b6000620001528262000159565b9050919050565b600073ffffffffffffffffffffffffffffffffffffffff82169050919050565b620001848162000131565b81146200019057600080fd5b50565b6200019e8162000145565b8114620001aa57600080fd5b50565b6113fb80620001bd6000396000f3fe608060405234801561001057600080fd5b506004361061009e5760003560e01c806393fa49151161006657806393fa491514610197578063b1eb96c9146101c7578063b73e4979146101e3578063d605787b14610214578063eb1ea521146102325761009e565b80633df0777b146100a35780633fcad964146100d357806346eee1c41461010557806366b446111461013557806377fbb66314610167575b600080fd5b6100bd60048036038101906100b89190611163565b61024e565b6040516100ca9190611232565b60405180910390f35b6100ed60048036038101906100e89190611111565b610304565b6040516100fc93929190611276565b60405180910390f35b61011f600480360381019061011a9190611111565b610548565b60405161012c91906112e8565b60405180910390f35b61014f600480360381019061014a9190611163565b6105fb565b60405161015e93929190611276565b60405180910390f35b610181600480360381019061017c9190611163565b6107b6565b60405161018e91906112e8565b60405180910390f35b6101b160048036038101906101ac9190611163565b61086c565b6040516101be91906112e8565b60405180910390f35b6101e160048036038101906101dc9190611111565b610922565b005b6101fd60048036038101906101f89190611163565b610a77565b60405161020b92919061124d565b60405180910390f35b61021c610f68565b60405161022991906112ad565b60405180910390f35b61024c60048036038101906102479190611163565b610f8e565b005b60008060009054906101000a900473ffffffffffffffffffffffffffffffffffffffff1673ffffffffffffffffffffffffffffffffffffffff16633df0777b84846040518363ffffffff1660e01b81526004016102ac929190611303565b60206040518083038186803b1580156102c457600080fd5b505afa1580156102d8573d6000803e3d6000fd5b505050506040513d601f19601f820116820180604052508101906102fc91906110e8565b905092915050565b60008060008060008054906101000a900473ffffffffffffffffffffffffffffffffffffffff1673ffffffffffffffffffffffffffffffffffffffff166346eee1c4866040518263ffffffff1660e01b815260040161036391906112e8565b60206040518083038186803b15801561037b57600080fd5b505afa15801561038f573d6000803e3d6000fd5b505050506040513d601f19601f820116820180604052508101906103b3919061113a565b905060008060009054906101000a900473ffffffffffffffffffffffffffffffffffffffff1673ffffffffffffffffffffffffffffffffffffffff166377fbb66387600185036040518363ffffffff1660e01b8152600401610416929190611303565b60206040518083038186803b15801561042e57600080fd5b505afa158015610442573d6000803e3d6000fd5b505050506040513d601f19601f82011682018060405250810190610466919061113a565b905060008060009054906101000a900473ffffffffffffffffffffffffffffffffffffffff1673ffffffffffffffffffffffffffffffffffffffff166393fa491588846040518363ffffffff1660e01b81526004016104c6929190611303565b60206040518083038186803b1580156104de57600080fd5b505afa1580156104f2573d6000803e3d6000fd5b505050506040513d601f19601f82011682018060405250810190610516919061113a565b905060008111156105335760018183955095509550505050610541565b600080839550955095505050505b9193909250565b60008060009054906101000a900473ffffffffffffffffffffffffffffffffffffffff1673ffffffffffffffffffffffffffffffffffffffff166346eee1c4836040518263ffffffff1660e01b81526004016105a491906112e8565b60206040518083038186803b1580156105bc57600080fd5b505afa1580156105d0573d6000803e3d6000fd5b505050506040513d601f19601f820116820180604052508101906105f4919061113a565b9050919050565b600080600080600061060d8787610a77565b915091508161062857600080600094509450945050506107af565b60008060009054906101000a900473ffffffffffffffffffffffffffffffffffffffff1673ffffffffffffffffffffffffffffffffffffffff166377fbb66389846040518363ffffffff1660e01b8152600401610686929190611303565b60206040518083038186803b15801561069e57600080fd5b505afa1580156106b2573d6000803e3d6000fd5b505050506040513d601f19601f820116820180604052508101906106d6919061113a565b905060008054906101000a900473ffffffffffffffffffffffffffffffffffffffff1673ffffffffffffffffffffffffffffffffffffffff166393fa491589836040518363ffffffff1660e01b8152600401610733929190611303565b60206040518083038186803b15801561074b57600080fd5b505afa15801561075f573d6000803e3d6000fd5b505050506040513d601f19601f82011682018060405250810190610783919061113a565b945060008511156107a057600185829550955095505050506107af565b60008060009550955095505050505b9250925092565b60008060009054906101000a900473ffffffffffffffffffffffffffffffffffffffff1673ffffffffffffffffffffffffffffffffffffffff166377fbb66384846040518363ffffffff1660e01b8152600401610814929190611303565b60206040518083038186803b15801561082c57600080fd5b505afa158015610840573d6000803e3d6000fd5b505050506040513d601f19601f82011682018060405250810190610864919061113a565b905092915050565b60008060009054906101000a900473ffffffffffffffffffffffffffffffffffffffff1673ffffffffffffffffffffffffffffffffffffffff166393fa491584846040518363ffffffff1660e01b81526004016108ca929190611303565b60206040518083038186803b1580156108e257600080fd5b505afa1580156108f6573d6000803e3d6000fd5b505050506040513d601f19601f8201168201806040525081019061091a919061113a565b905092915050565b6000600160009054906101000a900473ffffffffffffffffffffffffffffffffffffffff1673ffffffffffffffffffffffffffffffffffffffff166344cde24c836040518263ffffffff1660e01b815260040161097f91906112e8565b602060405180830381600087803b15801561099957600080fd5b505af11580156109ad573d6000803e3d6000fd5b505050506040513d601f19601f820116820180604052508101906109d1919061113a565b9050336002600083815260200190815260200160002060006101000a81548173ffffffffffffffffffffffffffffffffffffffff021916908373ffffffffffffffffffffffffffffffffffffffff1602179055503373ffffffffffffffffffffffffffffffffffffffff167f1d6299afd7b39bf09a4529e727a041f9136966d887f76419ce7c763b86dbab2582604051610a6b91906112e8565b60405180910390a25050565b60008060008060009054906101000a900473ffffffffffffffffffffffffffffffffffffffff1673ffffffffffffffffffffffffffffffffffffffff166346eee1c4866040518263ffffffff1660e01b8152600401610ad691906112e8565b60206040518083038186803b158015610aee57600080fd5b505afa158015610b02573d6000803e3d6000fd5b505050506040513d601f19601f82011682018060405250810190610b26919061113a565b90506000811115610f585760008060009050600060018403905060008060009054906101000a900473ffffffffffffffffffffffffffffffffffffffff1673ffffffffffffffffffffffffffffffffffffffff166377fbb6638a856040518363ffffffff1660e01b8152600401610b9e929190611303565b60206040518083038186803b158015610bb657600080fd5b505afa158015610bca573d6000803e3d6000fd5b505050506040513d601f19601f82011682018060405250810190610bee919061113a565b9050878110610c0857600080965096505050505050610f61565b60008054906101000a900473ffffffffffffffffffffffffffffffffffffffff1673ffffffffffffffffffffffffffffffffffffffff166377fbb6638a846040518363ffffffff1660e01b8152600401610c63929190611303565b60206040518083038186803b158015610c7b57600080fd5b505afa158015610c8f573d6000803e3d6000fd5b505050506040513d601f19601f82011682018060405250810190610cb3919061113a565b905087811015610cce57600182965096505050505050610f61565b5b600115610f5357826001600285850381610ce557fe5b040101935060008054906101000a900473ffffffffffffffffffffffffffffffffffffffff1673ffffffffffffffffffffffffffffffffffffffff166377fbb6638a866040518363ffffffff1660e01b8152600401610d45929190611303565b60206040518083038186803b158015610d5d57600080fd5b505afa158015610d71573d6000803e3d6000fd5b505050506040513d601f19601f82011682018060405250810190610d95919061113a565b905087811015610e775760008060009054906101000a900473ffffffffffffffffffffffffffffffffffffffff1673ffffffffffffffffffffffffffffffffffffffff166377fbb6638b600188016040518363ffffffff1660e01b8152600401610e00929190611303565b60206040518083038186803b158015610e1857600080fd5b505afa158015610e2c573d6000803e3d6000fd5b505050506040513d601f19601f82011682018060405250810190610e50919061113a565b9050888110610e6b5760018597509750505050505050610f61565b60018501935050610f4e565b60008060009054906101000a900473ffffffffffffffffffffffffffffffffffffffff1673ffffffffffffffffffffffffffffffffffffffff166377fbb6638b600188036040518363ffffffff1660e01b8152600401610ed8929190611303565b60206040518083038186803b158015610ef057600080fd5b505afa158015610f04573d6000803e3d6000fd5b505050506040513d601f19601f82011682018060405250810190610f28919061113a565b905088811015610f4657600180860397509750505050505050610f61565b600185039250505b610ccf565b505050505b60008092509250505b9250929050565b600160009054906101000a900473ffffffffffffffffffffffffffffffffffffffff1681565b600160009054906101000a900473ffffffffffffffffffffffffffffffffffffffff1673ffffffffffffffffffffffffffffffffffffffff163373ffffffffffffffffffffffffffffffffffffffff161461101e576040517f08c379a0000000000000000000000000000000000000000000000000000000008152600401611015906112c8565b60405180910390fd5b60006002600083815260200190815260200160002060009054906101000a900473ffffffffffffffffffffffffffffffffffffffff1690508073ffffffffffffffffffffffffffffffffffffffff167f880726f341ef886b90e4e4b02a26013f22f023fb94c1eb4a1056c62087a414f38460405161109c91906112e8565b60405180910390a2505050565b6000815190506110b881611397565b92915050565b6000813590506110cd816113ae565b92915050565b6000815190506110e2816113ae565b92915050565b6000602082840312156110fa57600080fd5b6000611108848285016110a9565b91505092915050565b60006020828403121561112357600080fd5b6000611131848285016110be565b91505092915050565b60006020828403121561114c57600080fd5b600061115a848285016110d3565b91505092915050565b6000806040838503121561117657600080fd5b6000611184858286016110be565b9250506020611195858286016110be565b9150509250929050565b6111a88161133d565b82525050565b6111b781611373565b82525050565b60006111ca60318361132c565b91507f4f6e6c792074686520617574686f72697a656420524e472063616e2073656e6460008301527f20612072616e646f6d206e756d6265722e0000000000000000000000000000006020830152604082019050919050565b61122c81611369565b82525050565b6000602082019050611247600083018461119f565b92915050565b6000604082019050611262600083018561119f565b61126f6020830184611223565b9392505050565b600060608201905061128b600083018661119f565b6112986020830185611223565b6112a56040830184611223565b949350505050565b60006020820190506112c260008301846111ae565b92915050565b600060208201905081810360008301526112e1816111bd565b9050919050565b60006020820190506112fd6000830184611223565b92915050565b60006040820190506113186000830185611223565b6113256020830184611223565b9392505050565b600082825260208201905092915050565b60008115159050919050565b600073ffffffffffffffffffffffffffffffffffffffff82169050919050565b6000819050919050565b600061137e82611385565b9050919050565b600061139082611349565b9050919050565b6113a08161133d565b81146113ab57600080fd5b50565b6113b781611369565b81146113c257600080fd5b5056fea2646970667358221220d0f0cbe278f6558caf2e0b161a83b09b76c8d34f36eb2908de4ccdeba7c7837464736f6c63430007030033",
  "linkReferences": {},
  "deployedLinkReferences": {}
}