{
  "_format": "hh-sol-artifact-1",
  "contractName": "RandomNumGenerator",
  "sourceName": "contracts/RandomNumGenerator.sol",
  "abi": [
    {
      "inputs": [
        {
          "internalType": "address payable",
          "name": "_tellorAddress",
          "type": "address"
        }
      ],
      "stateMutability": "nonpayable",
      "type": "constructor"
    },
    {
      "anonymous": false,
      "inputs": [
        {
          "indexed": false,
          "internalType": "uint256",
          "name": "_randomNumber",
          "type": "uint256"
        },
        {
          "indexed": true,
          "internalType": "address",
          "name": "_receiver",
          "type": "address"
        }
      ],
      "name": "RandomNumberGenerated",
      "type": "event"
    },
    {
      "anonymous": false,
      "inputs": [
        {
          "indexed": true,
          "internalType": "address",
          "name": "_receiver",
          "type": "address"
        },
        {
          "indexed": false,
          "internalType": "uint256",
          "name": "_queuePosition",
          "type": "uint256"
        }
      ],
      "name": "RandomNumberRequested",
      "type": "event"
    },
    {
      "inputs": [],
      "name": "TELLOR_REQUEST_ID",
      "outputs": [
        {
          "internalType": "uint256",
          "name": "",
          "type": "uint256"
        }
      ],
      "stateMutability": "view",
      "type": "function"
    },
    {
      "inputs": [],
      "name": "blockTimestampAtLastUpdate",
      "outputs": [
        {
          "internalType": "uint256",
          "name": "",
          "type": "uint256"
        }
      ],
      "stateMutability": "view",
      "type": "function"
    },
    {
      "inputs": [],
      "name": "generateRandomNumber",
      "outputs": [],
      "stateMutability": "nonpayable",
      "type": "function"
    },
    {
      "inputs": [
        {
          "internalType": "uint256",
          "name": "_requestId",
          "type": "uint256"
        }
      ],
      "name": "getCurrentValue",
      "outputs": [
        {
          "internalType": "bool",
          "name": "ifRetrieve",
          "type": "bool"
        },
        {
          "internalType": "uint256",
          "name": "value",
          "type": "uint256"
        },
        {
          "internalType": "uint256",
          "name": "_timestampRetrieved",
          "type": "uint256"
        }
      ],
      "stateMutability": "view",
      "type": "function"
    },
    {
      "inputs": [
        {
          "internalType": "uint256",
          "name": "_requestId",
          "type": "uint256"
        },
        {
          "internalType": "uint256",
          "name": "_timestamp",
          "type": "uint256"
        }
      ],
      "name": "getDataBefore",
      "outputs": [
        {
          "internalType": "bool",
          "name": "_ifRetrieve",
          "type": "bool"
        },
        {
          "internalType": "uint256",
          "name": "_value",
          "type": "uint256"
        },
        {
          "internalType": "uint256",
          "name": "_timestampRetrieved",
          "type": "uint256"
        }
      ],
      "stateMutability": "view",
      "type": "function"
    },
    {
      "inputs": [
        {
          "internalType": "uint256",
          "name": "_requestId",
          "type": "uint256"
        },
        {
          "internalType": "uint256",
          "name": "_timestamp",
          "type": "uint256"
        }
      ],
      "name": "getIndexForDataBefore",
      "outputs": [
        {
          "internalType": "bool",
          "name": "found",
          "type": "bool"
        },
        {
          "internalType": "uint256",
          "name": "index",
          "type": "uint256"
        }
      ],
      "stateMutability": "view",
      "type": "function"
    },
    {
      "inputs": [
        {
          "internalType": "uint256",
          "name": "_requestId",
          "type": "uint256"
        }
      ],
      "name": "getNewValueCountbyRequestId",
      "outputs": [
        {
          "internalType": "uint256",
          "name": "",
          "type": "uint256"
        }
      ],
      "stateMutability": "view",
      "type": "function"
    },
    {
      "inputs": [
        {
          "internalType": "uint256",
          "name": "_requestId",
          "type": "uint256"
        },
        {
          "internalType": "uint256",
          "name": "_index",
          "type": "uint256"
        }
      ],
      "name": "getTimestampbyRequestIDandIndex",
      "outputs": [
        {
          "internalType": "uint256",
          "name": "",
          "type": "uint256"
        }
      ],
      "stateMutability": "view",
      "type": "function"
    },
    {
      "inputs": [
        {
          "internalType": "uint256",
          "name": "_requestId",
          "type": "uint256"
        },
        {
          "internalType": "uint256",
          "name": "_timestamp",
          "type": "uint256"
        }
      ],
      "name": "isInDispute",
      "outputs": [
        {
          "internalType": "bool",
          "name": "",
          "type": "bool"
        }
      ],
      "stateMutability": "view",
      "type": "function"
    },
    {
      "inputs": [
        {
          "internalType": "uint256",
          "name": "_range",
          "type": "uint256"
        }
      ],
      "name": "randomNumberRequest",
      "outputs": [
        {
          "internalType": "uint256",
          "name": "",
          "type": "uint256"
        }
      ],
      "stateMutability": "nonpayable",
      "type": "function"
    },
    {
      "inputs": [
        {
          "internalType": "address",
          "name": "",
          "type": "address"
        }
      ],
      "name": "range",
      "outputs": [
        {
          "internalType": "uint256",
          "name": "",
          "type": "uint256"
        }
      ],
      "stateMutability": "view",
      "type": "function"
    },
    {
      "inputs": [],
      "name": "requestQueue",
      "outputs": [
        {
          "internalType": "uint256",
          "name": "first",
          "type": "uint256"
        },
        {
          "internalType": "uint256",
          "name": "last",
          "type": "uint256"
        }
      ],
      "stateMutability": "view",
      "type": "function"
    },
    {
      "inputs": [
        {
          "internalType": "uint256",
          "name": "_requestId",
          "type": "uint256"
        },
        {
          "internalType": "uint256",
          "name": "_timestamp",
          "type": "uint256"
        }
      ],
      "name": "retrieveData",
      "outputs": [
        {
          "internalType": "uint256",
          "name": "",
          "type": "uint256"
        }
      ],
      "stateMutability": "view",
      "type": "function"
    },
    {
      "inputs": [],
      "name": "valueAtLastUpdate",
      "outputs": [
        {
          "internalType": "uint256",
          "name": "",
          "type": "uint256"
        }
      ],
      "stateMutability": "view",
      "type": "function"
    }
  ],
  "bytecode": "0x6080604052600180553480156200001557600080fd5b5060405162001ac538038062001ac583398181016040528101906200003b9190620000c1565b80806000806101000a81548173ffffffffffffffffffffffffffffffffffffffff021916908373ffffffffffffffffffffffffffffffffffffffff160217905550506000600281905550600060038190555060016004600101819055506000600460020181905550506200013b565b600081519050620000bb8162000121565b92915050565b600060208284031215620000d457600080fd5b6000620000e484828501620000aa565b91505092915050565b6000620000fa8262000101565b9050919050565b600073ffffffffffffffffffffffffffffffffffffffff82169050919050565b6200012c81620000ed565b81146200013857600080fd5b50565b61197a806200014b6000396000f3fe608060405234801561001057600080fd5b50600436106100ea5760003560e01c806352dc5a611161008c578063773a115411610066578063773a11541461028c57806377fbb6631461029657806393fa4915146102c6578063b73e4979146102f6576100ea565b806352dc5a611461021e57806366b446111461023c5780636e5da2361461026e576100ea565b80633df0777b116100c85780633df0777b1461015c5780633fcad9641461018c57806344cde24c146101be57806346eee1c4146101ee576100ea565b806313f6b412146100ef57806328a21ec01461011f578063377d16101461013d575b600080fd5b61010960048036038101906101049190611425565b610327565b6040516101169190611862565b60405180910390f35b61012761033f565b6040516101349190611862565b60405180910390f35b610145610345565b60405161015392919061187d565b60405180910390f35b610176600480360381019061017191906114c9565b610357565b6040516101839190611747565b60405180910390f35b6101a660048036038101906101a19190611477565b61040d565b6040516101b59392919061178b565b60405180910390f35b6101d860048036038101906101d39190611477565b610651565b6040516101e59190611862565b60405180910390f35b61020860048036038101906102039190611477565b610746565b6040516102159190611862565b60405180910390f35b6102266107f9565b6040516102339190611862565b60405180910390f35b610256600480360381019061025191906114c9565b6107ff565b6040516102659392919061178b565b60405180910390f35b6102766109ba565b6040516102839190611862565b60405180910390f35b6102946109c0565b005b6102b060048036038101906102ab91906114c9565b610be1565b6040516102bd9190611862565b60405180910390f35b6102e060048036038101906102db91906114c9565b610c97565b6040516102ed9190611862565b60405180910390f35b610310600480360381019061030b91906114c9565b610d4d565b60405161031e929190611762565b60405180910390f35b60076020528060005260406000206000915090505481565b60035481565b60048060010154908060020154905082565b60008060009054906101000a900473ffffffffffffffffffffffffffffffffffffffff1673ffffffffffffffffffffffffffffffffffffffff16633df0777b84846040518363ffffffff1660e01b81526004016103b592919061187d565b60206040518083038186803b1580156103cd57600080fd5b505afa1580156103e1573d6000803e3d6000fd5b505050506040513d601f19601f82011682018060405250810190610405919061144e565b905092915050565b60008060008060008054906101000a900473ffffffffffffffffffffffffffffffffffffffff1673ffffffffffffffffffffffffffffffffffffffff166346eee1c4866040518263ffffffff1660e01b815260040161046c9190611862565b60206040518083038186803b15801561048457600080fd5b505afa158015610498573d6000803e3d6000fd5b505050506040513d601f19601f820116820180604052508101906104bc91906114a0565b905060008060009054906101000a900473ffffffffffffffffffffffffffffffffffffffff1673ffffffffffffffffffffffffffffffffffffffff166377fbb66387600185036040518363ffffffff1660e01b815260040161051f92919061187d565b60206040518083038186803b15801561053757600080fd5b505afa15801561054b573d6000803e3d6000fd5b505050506040513d601f19601f8201168201806040525081019061056f91906114a0565b905060008060009054906101000a900473ffffffffffffffffffffffffffffffffffffffff1673ffffffffffffffffffffffffffffffffffffffff166393fa491588846040518363ffffffff1660e01b81526004016105cf92919061187d565b60206040518083038186803b1580156105e757600080fd5b505afa1580156105fb573d6000803e3d6000fd5b505050506040513d601f19601f8201168201806040525081019061061f91906114a0565b9050600081111561063c576001818395509550955050505061064a565b600080839550955095505050505b9193909250565b6000629896808210610698576040517f08c379a000000000000000000000000000000000000000000000000000000000815260040161068f90611822565b60405180910390fd5b600033905082600760008373ffffffffffffffffffffffffffffffffffffffff1673ffffffffffffffffffffffffffffffffffffffff1681526020019081526020016000208190555060006106ec8261123e565b90508173ffffffffffffffffffffffffffffffffffffffff167f7a2348cf64e865f131932f9cd2cff519873b1bf4683107b8f71b371d30302612826040516107349190611862565b60405180910390a28092505050919050565b60008060009054906101000a900473ffffffffffffffffffffffffffffffffffffffff1673ffffffffffffffffffffffffffffffffffffffff166346eee1c4836040518263ffffffff1660e01b81526004016107a29190611862565b60206040518083038186803b1580156107ba57600080fd5b505afa1580156107ce573d6000803e3d6000fd5b505050506040513d601f19601f820116820180604052508101906107f291906114a0565b9050919050565b60025481565b60008060008060006108118787610d4d565b915091508161082c57600080600094509450945050506109b3565b60008060009054906101000a900473ffffffffffffffffffffffffffffffffffffffff1673ffffffffffffffffffffffffffffffffffffffff166377fbb66389846040518363ffffffff1660e01b815260040161088a92919061187d565b60206040518083038186803b1580156108a257600080fd5b505afa1580156108b6573d6000803e3d6000fd5b505050506040513d601f19601f820116820180604052508101906108da91906114a0565b905060008054906101000a900473ffffffffffffffffffffffffffffffffffffffff1673ffffffffffffffffffffffffffffffffffffffff166393fa491589836040518363ffffffff1660e01b815260040161093792919061187d565b60206040518083038186803b15801561094f57600080fd5b505afa158015610963573d6000803e3d6000fd5b505050506040513d601f19601f8201168201806040525081019061098791906114a0565b945060008511156109a457600185829550955095505050506109b3565b60008060009550955095505050505b9250925092565b60015481565b60008060006109d060015461040d565b92509250925082610a16576040517f08c379a0000000000000000000000000000000000000000000000000000000008152600401610a0d90611802565b60405180910390fd5b6003548111610a5a576040517f08c379a0000000000000000000000000000000000000000000000000000000008152600401610a51906117c2565b60405180910390fd5b816002541415610a9f576040517f08c379a0000000000000000000000000000000000000000000000000000000008152600401610a9690611842565b60405180910390fd5b81816002600060036000849190505583919050555050600080610ac06112c5565b9150915060008290506000600760008573ffffffffffffffffffffffffffffffffffffffff1673ffffffffffffffffffffffffffffffffffffffff1681526020019081526020016000205490506000610b1a8787846113b3565b90508273ffffffffffffffffffffffffffffffffffffffff1663eb1ea52182866040518363ffffffff1660e01b8152600401610b5792919061187d565b600060405180830381600087803b158015610b7157600080fd5b505af1158015610b85573d6000803e3d6000fd5b505050508473ffffffffffffffffffffffffffffffffffffffff167ff9494725b2d5b48d6441c153d7ed2ebc67edb917a7aef6c0041dce3fc18ecc1e82604051610bcf9190611862565b60405180910390a25050505050505050565b60008060009054906101000a900473ffffffffffffffffffffffffffffffffffffffff1673ffffffffffffffffffffffffffffffffffffffff166377fbb66384846040518363ffffffff1660e01b8152600401610c3f92919061187d565b60206040518083038186803b158015610c5757600080fd5b505afa158015610c6b573d6000803e3d6000fd5b505050506040513d601f19601f82011682018060405250810190610c8f91906114a0565b905092915050565b60008060009054906101000a900473ffffffffffffffffffffffffffffffffffffffff1673ffffffffffffffffffffffffffffffffffffffff166393fa491584846040518363ffffffff1660e01b8152600401610cf592919061187d565b60206040518083038186803b158015610d0d57600080fd5b505afa158015610d21573d6000803e3d6000fd5b505050506040513d601f19601f82011682018060405250810190610d4591906114a0565b905092915050565b60008060008060009054906101000a900473ffffffffffffffffffffffffffffffffffffffff1673ffffffffffffffffffffffffffffffffffffffff166346eee1c4866040518263ffffffff1660e01b8152600401610dac9190611862565b60206040518083038186803b158015610dc457600080fd5b505afa158015610dd8573d6000803e3d6000fd5b505050506040513d601f19601f82011682018060405250810190610dfc91906114a0565b9050600081111561122e5760008060009050600060018403905060008060009054906101000a900473ffffffffffffffffffffffffffffffffffffffff1673ffffffffffffffffffffffffffffffffffffffff166377fbb6638a856040518363ffffffff1660e01b8152600401610e7492919061187d565b60206040518083038186803b158015610e8c57600080fd5b505afa158015610ea0573d6000803e3d6000fd5b505050506040513d601f19601f82011682018060405250810190610ec491906114a0565b9050878110610ede57600080965096505050505050611237565b60008054906101000a900473ffffffffffffffffffffffffffffffffffffffff1673ffffffffffffffffffffffffffffffffffffffff166377fbb6638a846040518363ffffffff1660e01b8152600401610f3992919061187d565b60206040518083038186803b158015610f5157600080fd5b505afa158015610f65573d6000803e3d6000fd5b505050506040513d601f19601f82011682018060405250810190610f8991906114a0565b905087811015610fa457600182965096505050505050611237565b5b60011561122957826001600285850381610fbb57fe5b040101935060008054906101000a900473ffffffffffffffffffffffffffffffffffffffff1673ffffffffffffffffffffffffffffffffffffffff166377fbb6638a866040518363ffffffff1660e01b815260040161101b92919061187d565b60206040518083038186803b15801561103357600080fd5b505afa158015611047573d6000803e3d6000fd5b505050506040513d601f19601f8201168201806040525081019061106b91906114a0565b90508781101561114d5760008060009054906101000a900473ffffffffffffffffffffffffffffffffffffffff1673ffffffffffffffffffffffffffffffffffffffff166377fbb6638b600188016040518363ffffffff1660e01b81526004016110d692919061187d565b60206040518083038186803b1580156110ee57600080fd5b505afa158015611102573d6000803e3d6000fd5b505050506040513d601f19601f8201168201806040525081019061112691906114a0565b90508881106111415760018597509750505050505050611237565b60018501935050611224565b60008060009054906101000a900473ffffffffffffffffffffffffffffffffffffffff1673ffffffffffffffffffffffffffffffffffffffff166377fbb6638b600188036040518363ffffffff1660e01b81526004016111ae92919061187d565b60206040518083038186803b1580156111c657600080fd5b505afa1580156111da573d6000803e3d6000fd5b505050506040513d601f19601f820116820180604052508101906111fe91906114a0565b90508881101561121c57600180860397509750505050505050611237565b600185039250505b610fa5565b505050505b60008092509250505b9250929050565b600060016004600201600082825401925050819055508160046000016000600460020154815260200190815260200160002060006101000a81548173ffffffffffffffffffffffffffffffffffffffff021916908373ffffffffffffffffffffffffffffffffffffffff160217905550600160046001015460046002015403019050919050565b6000806004600101546004600201541015611315576040517f08c379a000000000000000000000000000000000000000000000000000000000815260040161130c906117e2565b60405180910390fd5b6000600460010154905060006004600001600083815260200190815260200160002060009054906101000a900473ffffffffffffffffffffffffffffffffffffffff1690506004600001600083815260200190815260200160002060006101000a81549073ffffffffffffffffffffffffffffffffffffffff0219169055600160046001016000828254019250508190555080829350935050509091565b600080824385870201816113c357fe5b069050809150509392505050565b6000813590506113e0816118ff565b92915050565b6000815190506113f581611916565b92915050565b60008135905061140a8161192d565b92915050565b60008151905061141f8161192d565b92915050565b60006020828403121561143757600080fd5b6000611445848285016113d1565b91505092915050565b60006020828403121561146057600080fd5b600061146e848285016113e6565b91505092915050565b60006020828403121561148957600080fd5b6000611497848285016113fb565b91505092915050565b6000602082840312156114b257600080fd5b60006114c084828501611410565b91505092915050565b600080604083850312156114dc57600080fd5b60006114ea858286016113fb565b92505060206114fb858286016113fb565b9150509250929050565b61150e816118c9565b82525050565b60006115216032836118a6565b91507f4f6e6c79206f6e652072616e646f6d206e756d6265722067656e65726174656460008301527f20706572207072696365207570646174652e00000000000000000000000000006020830152604082019050919050565b60006115876012836118a6565b91507f54686520717565756520697320656d70747900000000000000000000000000006000830152602082019050919050565b60006115c7603b836118a6565b91507f546865206c61746573742070726963652075706461746520636f756c64206e6f60008301527f74206265207265747269657665642066726f6d2054656c6c6f722e00000000006020830152604082019050919050565b600061162d6042836118a6565b91507f5468652072616e676520666f72207468652072616e646f6d206e756d6265722060008301527f6d757374206265206c657373207468616e2074686520626c6f636b6e756d626560208301527f722e0000000000000000000000000000000000000000000000000000000000006040830152606082019050919050565b60006116b96048836118a6565b91507f43616e6e6f742067656e65726174652061207472756c792072616e646f6d206e60008301527f756d626572206966207468652061737365742076616c7565206861736e27742060208301527f6368616e6765642e0000000000000000000000000000000000000000000000006040830152606082019050919050565b611741816118f5565b82525050565b600060208201905061175c6000830184611505565b92915050565b60006040820190506117776000830185611505565b6117846020830184611738565b9392505050565b60006060820190506117a06000830186611505565b6117ad6020830185611738565b6117ba6040830184611738565b949350505050565b600060208201905081810360008301526117db81611514565b9050919050565b600060208201905081810360008301526117fb8161157a565b9050919050565b6000602082019050818103600083015261181b816115ba565b9050919050565b6000602082019050818103600083015261183b81611620565b9050919050565b6000602082019050818103600083015261185b816116ac565b9050919050565b60006020820190506118776000830184611738565b92915050565b60006040820190506118926000830185611738565b61189f6020830184611738565b9392505050565b600082825260208201905092915050565b60006118c2826118d5565b9050919050565b60008115159050919050565b600073ffffffffffffffffffffffffffffffffffffffff82169050919050565b6000819050919050565b611908816118b7565b811461191357600080fd5b50565b61191f816118c9565b811461192a57600080fd5b50565b611936816118f5565b811461194157600080fd5b5056fea2646970667358221220e75b303719241c2b8d090a00cd1e1d484f4778e8a9f737470d7776055c6b39dd64736f6c63430007030033",
  "linkReferences": {},
  "deployedLinkReferences": {}
}